:020000040800F2
:100000000050002009080008650500086B0500087D
:1000100071050008770500087D0500080000000054
:100020000000000000000000000000008305000840
:100030008F050008000000009B050008A7050008C8
:10004000510800085108000851080008510800082C
:10005000510800085108000851080008B3050008BD
:10006000510800085108000851080008510800080C
:1000700051080008510800085108000851080008FC
:1000800051080008510800085108000851080008EC
:1000900051080008510800085108000851080008DC
:1000A00051080008C105000851080008F9050008BA
:1000B00051080008510800085108000851080008BC
:1000C00051080008510800085108000851080008AC
:1000D000510800085108000851080008510800089C
:1000E00051080008510800085108000800000000ED
:1000F0000000000000000000000000000000000000
:0C01000000000000000000005FF808F1A3
:10010C0010B5054C237833B9044B13B10448AFF345
:10011C0000800123237010BD74000020000000003B
:10012C000C32000808B5034B1BB103490348AFF36D
:10013C00008008BD00000000780000200C32000890
:10014C0080B500AF00F080FB00F010F800F0F2F882
:10015C0000F052F800F0C4F8034801F0DFFA002177
:10016C00014801F0B3FBFEE7A800002080B590B079
:10017C0000AF07F1180328220021184602F0EAFB11
:10018C003B1D00221A605A609A60DA601A610123E2
:10019C00BB614FF48033FB6100233B620123BB62E4
:1001AC0002237B634FF48033BB634FF4E013FB6398
:1001BC0007F11803184600F053FE0346002B01D03C
:1001CC0000F0F8F80F237B600223BB600023FB6078
:1001DC004FF480633B6100237B613B1D0221184679
:1001EC0001F0BEF80346002B01D000F0E3F800BF8D
:1001FC004037BD4680BD000080B58AB000AF07F126
:10020C00180300221A605A609A60DA6007F1100332
:10021C0000221A605A603B4600221A605A609A60AB
:10022C00DA602D4B2D4A1A602B4B00225A602A4B58
:10023C0000229A60284B4FF6FF72DA60264B0022A0
:10024C001A61254B00225A61234B00229A612248E5
:10025C0001F014FA0346002B01D000F0ABF84FF478
:10026C008053BB6107F1180319461B4801F084FD4C
:10027C000346002B01D000F09DF8174801F0CEFA90
:10028C000346002B01D000F095F800233B610023BE
:10029C007B6107F1100319460F4802F0AFF80346D3
:1002AC00002B01D000F086F800233B6001237B601B
:1002BC000023BB600023FB603B4600221946064826
:1002CC0001F0BEFC0346002B01D000F073F800BF18
:1002DC002837BD4680BD00BFA8000020002C01407F
:1002EC0080B500AF114B124A1A60104B4FF4E1323B
:1002FC005A600E4B00229A600C4B0022DA600B4BBA
:10030C0000221A61094B0C225A61084B00229A6197
:10031C00064B0022DA61054802F0CEF80346002BAA
:10032C0001D000F047F800BF80BD00BFF0000020F6
:10033C000044004080B586B000AF07F108030022EE
:10034C001A605A609A60DA60174B9B69164A43F040
:10035C0020039361144B9B6903F020037B607B6843
:10036C00114B9B69104A43F0040393610E4B9B693C
:10037C0003F004033B603B680223BB600B4BFB6048
:10038C0002233B6107F108031946094800F0CCFB36
:10039C0000220021072000F090FB072000F0A9FBB1
:1003AC0000BF1837BD4680BD001002400000111080
:1003BC000008014080B400AF72B600BFFEE7000039
:1003CC0080B485B000AF154B9B69144A43F0010310
:1003DC009361124B9B6903F00103BB60BB680F4B2D
:1003EC00DB690E4A43F08053D3610C4BDB6903F09D
:1003FC0080537B607B680A4B5B68FB60FB6823F077
:10040C00E063FB60FB6843F00073FB60044AFB682D
:10041C00536000BF1437BD4680BC704700100240CB
:10042C000000014080B588B000AF786007F1100380
:10043C0000221A605A609A60DA607B681B681E4A58
:10044C00934234D11D4B9B691C4A43F40063936166
:10045C001A4B9B6903F40063FB60FB68174B9B69A9
:10046C00164A43F004039361144B9B6903F0040395
:10047C00BB60BB684FF480733B6100237B6100233E
:10048C00BB6107F1100319460D4800F04DFB00222B
:10049C000121192000F011FB192000F02AFB002289
:1004AC0000211B2000F009FB1B2000F022FB00BFE9
:1004BC002037BD4680BD00BF002C0140001002401B
:1004CC000008014080B588B000AF786007F11003D8
:1004DC0000221A605A609A60DA607B681B681B4ABB
:1004EC0093422FD11A4BDB69194A43F40033D36181
:1004FC00174BDB6903F40033FB60FB68144B9B69FF
:10050C00134A43F004039361114B9B6903F00403FA
:10051C00BB60BB6804233B6102237B610323FB614B
:10052C0007F1100319460B4800F0FEFA08233B6153
:10053C0000237B610023BB6107F1100319460548BA
:10054C0000F0F2FA00BF2037BD4680BD00440040E9
:10055C00001002400008014080B400AFFEE780B4F8
:10056C0000AFFEE780B400AFFEE780B400AFFEE75B
:10057C0080B400AFFEE780B400AF00BFBD4680BCC6
:10058C00704780B400AF00BFBD4680BC704780B4DC
:10059C0000AF00BFBD4680BC704780B500AF00F017
:1005AC0099F900BF80BD80B500AF022000F040FC7F
:1005BC0000BF80BD80B400AF0A4B1B681B6903F001
:1005CC000103012B09D1074B1B686FF001021A6163
:1005DC00054B1B680133044A136000BFBD4680BC49
:1005EC00704700BFA80000209000002080B596B096
:1005FC0000AF4A4B1B681B6903F00203022B40F04F
:10060C008A80464B1B686FF002021A61444B1B78C0
:10061C00DBB2002B07D0424B00221A703F4B1B68F9
:10062C0000225A6277E03F4B1B68642B1ED80021D6
:10063C003A4801F069FC38643B4B1B681A043B6C6C
:10064C001A44384B1B683949B1FBF2F2384941F86E
:10065C002320324B1B6800225A62334B00221A6053
:10066C00304B1B6801332F4A136054E000212B4898
:10067C0001F038FA294801F0A3F8284B1B68002236
:10068C005A6201237B6527E0294A7B6D52F823309F
:10069C007B647B6D013B3B650BE03B6D0133244977
:1006AC003A6D51F82220224941F823203B6D013B41
:1006BC003B653B6D002B06DB1D4A3B6D52F823302E
:1006CC007A6C9A42E9D33B6D013319497A6C41F843
:1006DC0023207B6D01337B657B6D642BD4DD144B48
:1006EC00D3F8C830FB643846FB6C124A402102F048
:1006FC0039F9B864BB6C9AB239464FF0FF330E48E7
:10070C0001F02AFF084B00221A60064B00221A60E7
:10071C000A4B00221A705837BD4680BDA800002035
:10072C0000000020940000209000002000A24A0449
:10073C003801002024320008F0000020980000202E
:10074C0080B582B000AF0346FB80FB88022B10D132
:10075C000A4B1B7883F00103DBB2002B09D0074B4B
:10076C0001221A700021064801F0B0F8044800F08C
:10077C00D5FF00BF0837BD4680BD00BF98000020E4
:10078C00A800002080B586B000AF7860144A154BE5
:10079C00D31A7B617B693B61134B1B68002B02D125
:1007AC00114B124A1A60104B1A687B6813443A6951
:1007BC009A4207D202F0A4F803460C221A604FF0BA
:1007CC00FF3309E0084B1B68FB60074B1A687B681A
:1007DC001344054A1360FB6818461837BD4680BDA4
:1007EC0000500020000400009C000020E0020020CB
:1007FC0080B400AF00BFBD4680BC7047FFF7F8FF68
:10080C000B480C490C4A002302E0D458C450043362
:10081C00C4188C42F9D3094A094C002301E0136037
:10082C000432A242FBD302F071F8FFF789FC704747
:10083C000000002074000020943200087400002096
:10084C00E0020020FEE7000080B500AF084B1B68FB
:10085C00074A43F010031360032000F023F90F2024
:10086C0000F008F8FFF7ACFD0023184680BD00BF70
:10087C000020024080B582B000AF7860124B1A683D
:10088C00124B1B7819464FF47A73B3FBF1F3B2FB9E
:10089C00F3F3184600F03BF90346002B01D001237B
:1008AC000EE07B680F2B0AD8002279684FF0FF30DE
:1008BC0000F003F9064A7B681360002300E0012373
:1008CC0018460837BD4680BD040000200C000020EF
:1008DC000800002080B400AF054B1B781A46054B6E
:1008EC001B681344034A136000BFBD4680BC7047AD
:1008FC000C000020CC02002080B400AF024B1B681F
:10090C001846BD4680BC7047CC02002080B485B030
:10091C0000AF78607B6803F00703FB600C4BDB686F
:10092C00BB60BA684FF6FF031340BB60FB681A024A
:10093C00BB68134343F0BF6343F40033BB60044A0A
:10094C00BB68D36000BF1437BD4680BC704700BF86
:10095C0000ED00E080B400AF044BDB681B0A03F031
:10096C0007031846BD4680BC704700BF00ED00E091
:10097C0080B483B000AF0346FB7197F90730002BAE
:10098C000BDBFB7903F01F02064997F907305B0973
:10099C00012000FA02F241F8232000BF0C37BD46BB
:1009AC0080BC704700E100E080B483B000AF034628
:1009BC003960FB7197F90730002B0ADB3B68DAB220
:1009CC000C4997F907301201D2B20B4483F800237B
:1009DC000AE03B68DAB20849FB7903F00F03043BE9
:1009EC001201D2B20B441A7600BF0C37BD4680BC44
:1009FC00704700BF00E100E000ED00E080B489B07A
:100A0C0000AFF860B9607A60FB6803F00703FB6124
:100A1C00FB69C3F10703042B28BF0423BB61FB69EB
:100A2C000433062B02D9FB69033B00E000237B61F6
:100A3C004FF0FF32BB6902FA03F3DA43BB681A408A
:100A4C007B699A404FF0FF317B6901FA03F3D9437C
:100A5C007B680B40134318462437BD4680BC704757
:100A6C0080B582B000AF78607B68013BB3F1807FCA
:100A7C0001D301230FE00A4A7B68013B53600F212D
:100A8C004FF0FF30FFF790FF054B00229A60044BAC
:100A9C0007221A60002318460837BD4680BD00BFE8
:100AAC0010E000E080B582B000AF78607868FFF7A6
:100ABC002DFF00BF0837BD4680BD80B586B000AFA6
:100ACC000346B9607A60FB7300237B61FFF742FF3A
:100ADC0078617A68B9687869FFF790FF024697F9F0
:100AEC000F3011461846FFF75FFF00BF1837BD46A1
:100AFC0080BD80B582B000AF0346FB7197F907301B
:100B0C001846FFF735FF00BF0837BD4680BD80B5DE
:100B1C0082B000AF78607868FFF7A2FF03461846F2
:100B2C000837BD4680BD000080B48BB000AF786044
:100B3C00396000237B6200233B6269E101227B6AFE
:100B4C0002FA03F3FB613B681B68FA691340BB6153
:100B5C00BA69FB699A4240F058813B685B689A4AD3
:100B6C0093425ED0984A934275D8984A934258D093
:100B7C00964A93426FD8964A934252D0944A9342E3
:100B8C0069D8944A93424CD0924A934263D8924A81
:100B9C00934246D0904A93425DD8122B2AD8122BFE
:100BAC0059D801A252F823F02F0C0008090C0008A8
:100BBC001B0C00085D0C0008630C0008630C00089B
:100BCC00630C0008630C0008630C0008630C00083D
:100BDC00630C0008630C0008630C0008630C00082D
:100BEC00630C0008630C0008630C0008110C00086F
:100BFC00250C0008794A934213D02CE03B68DB6843
:100C0C003B6229E03B68DB6804333B6224E03B68D1
:100C1C00DB6808333B621FE03B68DB680C333B62EC
:100C2C001AE03B689B68002B02D104233B6213E063
:100C3C003B689B68012B05D108233B627B68FA69F2
:100C4C001A6109E008233B627B68FA695A6103E088
:100C5C0000233B6200E000BFBB69FF2B01D87B681F
:100C6C0001E07B6804337B61BB69FF2B02D87B6A94
:100C7C009B0002E07B6A083B9B003B617B691A6826
:100C8C000F213B6901FA03F3DB431A40396A3B69D4
:100C9C0001FA03F31A437B691A603B685B6803F043
:100CAC008053002B00F0B1804D4B9B694C4A43F0B4
:100CBC00010393614A4B9B6903F00103BB60BB6862
:100CCC00484A7B6A9B08023352F82330FB607B6AEC
:100CDC0003F003039B000F2202FA03F3DB43FA68D1
:100CEC001340FB607B68404A934213D07B683F4AB9
:100CFC0093420DD07B683E4A934207D07B683D4AB5
:100D0C00934201D1032306E0042304E0022302E012
:100D1C00012300E000237A6A02F003029200934060
:100D2C00FA681343FB602F497B6A9B080233FA680D
:100D3C0041F823203B685B6803F48013002B06D03A
:100D4C002D4B9A682C49BB6913438B6006E02A4BE8
:100D5C009A68BB69DB43284913408B603B685B682E
:100D6C0003F40013002B06D0234BDA682249BB692D
:100D7C001343CB6006E0204BDA68BB69DB431E49AA
:100D8C001340CB603B685B6803F40033002B06D048
:100D9C00194B5A681849BB6913434B6006E0164B54
:100DAC005A68BB69DB43144913404B603B685B6872
:100DBC0003F48033002B21D00F4B1A680E49BB690A
:100DCC0013430B6021E000BF000032100000311013
:100DDC000000221000002110000012100000111061
:100DEC00001002400000014000080140000C0140CE
:100DFC000010014000140140000401400B4B1A6824
:100E0C00BB69DB43094913400B607B6A01337B628E
:100E1C003B681A687B6A22FA03F3002B7FF48EAED0
:100E2C0000BF00BF2C37BD4680BC7047000401409A
:100E3C0080B582B000AF0346FB80084B5A69FB8833
:100E4C001340002B06D0054AFB885361FB881846DB
:100E5C00FFF776FC00BF0837BD4680BD000401409B
:100E6C0080B586B000AF78607B68002B01D1012380
:100E7C006CE27B681B6803F00103002B00F0878099
:100E8C00924B5B6803F00C03042B0CD08F4B5B680C
:100E9C0003F00C03082B12D18C4B5B6803F48033EA
:100EAC00B3F5803F0BD1894B1B6803F40033002B47
:100EBC006CD07B685B68002B68D1012346E27B68B1
:100ECC005B68B3F5803F06D1804B1B687F4A43F4C7
:100EDC00803313602EE07B685B68002B0CD17B4B5E
:100EEC001B687A4A23F480331360784B1B68774A6B
:100EFC0023F4802313601DE07B685B68B3F5A02F9F
:100F0C000CD1724B1B68714A43F4802313606F4BF6
:100F1C001B686E4A43F4803313600BE06B4B1B6809
:100F2C006A4A23F480331360684B1B68674A23F4C6
:100F3C00802313607B685B68002B13D0FFF7DCFC0D
:100F4C00386108E0FFF7D8FC02463B69D31A642BE2
:100F5C0001D90323FAE15D4B1B6803F40033002B2A
:100F6C00F0D014E0FFF7C8FC386108E0FFF7C4FCD0
:100F7C0002463B69D31A642B01D90323E6E1534B98
:100F8C001B6803F40033002BF0D100E000BF7B683A
:100F9C001B6803F00203002B63D04C4B5B6803F01F
:100FAC000C03002B0BD0494B5B6803F00C03082B94
:100FBC001CD1464B5B6803F48033002B16D1434B9A
:100FCC001B6803F00203002B05D07B681B69012B07
:100FDC0001D00123BAE13D4B1B6823F0F8027B687A
:100FEC005B69DB00394913430B603AE07B681B6992
:100FFC00002B20D0364B01221A60FFF77DFC3861A4
:10100C0008E0FFF779FC02463B69D31A022B01D9A1
:10101C0003239BE12D4B1B6803F00203002BF0D044
:10102C002A4B1B6823F0F8027B685B69DB002749BD
:10103C0013430B6015E0264B00221A60FFF75CFC93
:10104C00386108E0FFF758FC02463B69D31A022BC3
:10105C0001D903237AE11D4B1B6803F00203002B1B
:10106C00F0D17B681B6803F00803002B3AD07B6837
:10107C009B69002B19D0174B01221A60FFF73CFC1F
:10108C00386108E0FFF738FC02463B69D31A022BA3
:10109C0001D903235AE10D4B5B6A03F00203002BC9
:1010AC00F0D0012000F0CCFA1CE00A4B00221A60B0
:1010BC00FFF722FC38610FE0FFF71EFC02463B698C
:1010CC00D31A022B08D9032340E100BF00100240C1
:1010DC0000004242800442429E4B5B6A03F00203D2
:1010EC00002BE9D17B681B6803F00403002B00F094
:1010FC00A6800023FB75974BDB6903F08053002B14
:10110C000DD1944BDB69934A43F08053D361914BDF
:10111C00DB6903F08053BB60BB680123FB758E4B0E
:10112C001B6803F48073002B18D18B4B1B688A4A05
:10113C0043F480731360FFF7DFFB386108E0FFF7BF
:10114C00DBFB02463B69D31A642B01D90323FDE078
:10115C00814B1B6803F48073002BF0D07B68DB6839
:10116C00012B06D17B4B1B6A7A4A43F001031362B5
:10117C002DE07B68DB68002B0CD1764B1B6A754A23
:10118C0023F001031362734B1B6A724A23F00403AE
:10119C0013621CE07B68DB68052B0CD16D4B1B6A62
:1011AC006C4A43F0040313626A4B1B6A694A43F0AE
:1011BC00010313620BE0674B1B6A664A23F00103C1
:1011CC001362644B1B6A634A23F0040313627B684B
:1011DC00DB68002B15D0FFF78FFB38610AE0FFF7B7
:1011EC008BFB02463B69D31A41F28832934201D9F8
:1011FC000323ABE0574B1B6A03F00203002BEED02A
:10120C0014E0FFF779FB38610AE0FFF775FB024643
:10121C003B69D31A41F28832934201D9032395E0FA
:10122C004C4B1B6A03F00203002BEED1FB7D012B10
:10123C0005D1484BDB69474A23F08053D3617B6867
:10124C00DB69002B00F08180424B5B6803F00C03E0
:10125C00082B61D07B68DB69022B46D13F4B002207
:10126C001A60FFF749FB386108E0FFF745FB0246BF
:10127C003B69D31A022B01D9032367E0354B1B685A
:10128C0003F00073002BF0D17B681B6AB3F5803F31
:10129C0008D1304B5B6823F400327B689B682D4986
:1012AC0013434B602B4B5B6823F474127B68196AF5
:1012BC007B685B6A0B43274913434B60274B012226
:1012CC001A60FFF719FB386108E0FFF715FB0246BF
:1012DC003B69D31A022B01D9032337E01D4B1B6842
:1012EC0003F00073002BF0D02FE01C4B00221A608F
:1012FC00FFF702FB386108E0FFF7FEFA02463B6994
:10130C00D31A022B01D9032320E0124B1B6803F0E4
:10131C000073002BF0D118E07B68DB69012B01D145
:10132C00012313E00B4B5B68FB60FB6803F480321A
:10133C007B681B6A9A4206D1FB6803F470127B68C7
:10134C005B6A9A4201D0012300E00023184618374B
:10135C00BD4680BD0010024000700040600042425B
:10136C0080B584B000AF786039607B68002B01D108
:10137C000123D0E06A4B1B6803F007033A689A42DA
:10138C0010D9674B1B6823F0070265493B68134370
:10139C000B60634B1B6803F007033A689A4201D059
:1013AC000123B8E07B681B6803F00203002B20D0FC
:1013BC007B681B6803F00403002B05D0594B5B685A
:1013CC00584A43F4E06353607B681B6803F00803DE
:1013DC00002B05D0534B5B68524A43F46053536067
:1013EC00504B5B6823F0F0027B689B684D491343BC
:1013FC004B607B681B6803F00103002B40D07B68BB
:10140C005B68012B07D1474B1B6803F40033002B9F
:10141C0015D101237FE07B685B68022B07D1414B20
:10142C001B6803F00073002B09D1012373E03D4BC3
:10143C001B6803F00203002B01D101236BE0394B35
:10144C005B6823F003027B685B68364913434B608F
:10145C00FFF752FAF8600AE0FFF74EFA0246FB6813
:10146C00D31A41F28832934201D9032353E02D4B16
:10147C005B6803F00C027B685B689B009A42EBD1C3
:10148C00274B1B6803F007033A689A4210D2244B8F
:10149C001B6823F0070222493B6813430B60204B67
:1014AC001B6803F007033A689A4201D0012332E02B
:1014BC007B681B6803F00403002B08D0194B5B6896
:1014CC0023F4E0627B68DB68164913434B607B684E
:1014DC001B6803F00803002B09D0124B5B6823F444
:1014EC0060527B681B69DB000E4913434B6000F0B4
:1014FC0021F802460B4B5B681B0903F00F030A49EA
:10150C00CB5C22FA03F3094A1360094B1B6818469B
:10151C00FFF7B0F9002318461037BD4680BD00BF59
:10152C0000200240001002402C3200080400002071
:10153C000800002080B487B000AF0023FB600023BC
:10154C00BB6000237B6100237B6000233B611E4B4F
:10155C005B68FB60FB6803F00C03042B02D0082BC8
:10156C0003D027E0194B3B6127E0FB689B0C03F091
:10157C000F03174AD35C7B60FB6803F48033002BAA
:10158C0010D0114B5B685B0C03F00103114AD35C68
:10159C00BB607B680D4A02FB03F2BB68B2FBF3F342
:1015AC007B6104E07B680C4A02FB03F37B617B6983
:1015BC003B6102E0054B3B6100BF3B6918461C37A1
:1015CC00BD4680BC704700BF0010024000127A007C
:1015DC00443200085432000800093D0080B400AFCA
:1015EC00024B1B681846BD4680BC704704000020A7
:1015FC0080B500AFFFF7F2FF0246054B5B681B0A94
:10160C0003F007030349CB5C22FA03F3184680BDB1
:10161C00001002403C32000880B500AFFFF7DEFF3F
:10162C000246054B5B68DB0A03F007030349CB5CFE
:10163C0022FA03F3184680BD001002403C32000829
:10164C0080B485B000AF78600A4B1B680A4AA2FBD5
:10165C0003235B0A7A6802FB03F3FB6000BFFB68A1
:10166C005A1EFA60002BF9D100BF00BF1437BD46DB
:10167C0080BC704704000020D34D621080B582B04E
:10168C0000AF78607B68002B01D1012341E07B68BF
:10169C0093F83D30DBB2002B06D17B68002283F837
:1016AC003C207868FEF7BEFE7B68022283F83D2062
:1016BC007B681A687B6804331946104600F068FC96
:1016CC007B68012283F846207B68012283F83E2048
:1016DC007B68012283F83F207B68012283F840203D
:1016EC007B68012283F841207B68012283F8422029
:1016FC007B68012283F843207B68012283F8442015
:10170C007B68012283F845207B68012283F83D2009
:10171C00002318460837BD4680BD000080B485B054
:10172C0000AF78607B6893F83D30DBB2012B01D0C1
:10173C0001233AE07B68022283F83D207B681B681A
:10174C00DA687B681B6842F00102DA607B681B6810
:10175C00184A93420ED07B681B68B3F1804F09D0B6
:10176C007B681B68144A934204D07B681B68134A3D
:10177C00934211D17B681B689B6803F00703FB60E5
:10178C00FB68062B10D07B681B681A687B681B688B
:10179C0042F001021A6007E07B681B681A687B68DC
:1017AC001B6842F001021A60002318461437BD462C
:1017BC0080BC7047002C0140000400400008004031
:1017CC0080B483B000AF78607B681B68DA687B6894
:1017DC001B6822F00102DA607B681B681A6A41F20E
:1017EC0011131340002B0FD17B681B681A6A40F24F
:1017FC0044431340002B07D17B681B681A687B6835
:10180C001B6822F001021A607B68012283F83D20DC
:10181C00002318460C37BD4680BC704780B582B09B
:10182C0000AF78607B68002B01D1012341E07B681D
:10183C0093F83D30DBB2002B06D17B68002283F895
:10184C003C20786800F039F87B68022283F83D2050
:10185C007B681A687B6804331946104600F098FBC5
:10186C007B68012283F846207B68012283F83E20A6
:10187C007B68012283F83F207B68012283F840209B
:10188C007B68012283F841207B68012283F8422087
:10189C007B68012283F843207B68012283F8442073
:1018AC007B68012283F845207B68012283F83D2068
:1018BC00002318460837BD4680BD80B483B000AF06
:1018CC00786000BF0C37BD4680BC704780B584B0D3
:1018DC0000AF786039600023FB733B68002B04D1A8
:1018EC007B6893F83E30DBB213E03B68042B04D1E9
:1018FC007B6893F83F30DBB20BE03B68082B04D1DC
:10190C007B6893F84030DBB203E07B6893F841309E
:10191C00DBB2BB733B68002B04D17B6893F842307D
:10192C00DBB213E03B68042B04D17B6893F84330A3
:10193C00DBB20BE03B68082B04D17B6893F8443096
:10194C00DBB203E07B6893F84530DBB27B73BB7B87
:10195C00012B02D17B7B012B01D00123B8E03B682A
:10196C00002B04D17B68022283F83E2013E03B68F5
:10197C00042B04D17B68022283F83F200BE03B68E8
:10198C00082B04D17B68022283F8402003E07B689B
:10199C00022283F841203B68002B04D17B68022291
:1019AC0083F8422013E03B68042B04D17B680222AD
:1019BC0083F843200BE03B68082B04D17B680222A0
:1019CC0083F8442003E07B68022283F845203B68BF
:1019DC000C2B41D801A252F823F000BF1D1A0008AD
:1019EC00651A0008651A0008651A00082F1A000805
:1019FC00651A0008651A0008651A0008411A0008E3
:101A0C00651A0008651A0008651A0008531A0008C0
:101A1C007B681B68DA687B681B6842F00202DA603C
:101A2C001DE07B681B68DA687B681B6842F0040267
:101A3C00DA6014E07B681B68DA687B681B6842F02C
:101A4C000802DA600BE07B681B68DA687B681B684D
:101A5C0042F01002DA6002E00123FB7300BFFB7B53
:101A6C00002B34D17B681B6801223968184600F0C2
:101A7C00A0FC7B681B68184A93420ED07B681B68DD
:101A8C00B3F1804F09D07B681B68144A934204D091
:101A9C007B681B68124A934211D17B681B689B6858
:101AAC0003F00703BB60BB68062B10D07B681B6878
:101ABC001A687B681B6842F001021A6007E07B68B9
:101ACC001B681A687B681B6842F001021A60FB7B7A
:101ADC0018461037BD4680BD002C01400004004064
:101AEC000008004080B584B000AF786039600023F6
:101AFC00FB733B680C2B41D801A252F823F000BFBA
:101B0C00411B0008891B0008891B0008891B000861
:101B1C00531B0008891B0008891B0008891B00083F
:101B2C00651B0008891B0008891B0008891B00081D
:101B3C00771B00087B681B68DA687B681B6822F0DF
:101B4C000202DA601DE07B681B68DA687B681B6840
:101B5C0022F00402DA6014E07B681B68DA687B68A8
:101B6C001B6822F00802DA600BE07B681B68DA68FD
:101B7C007B681B6822F01002DA6002E00123FB7321
:101B8C0000BFFB7B002B56D17B681B680022396899
:101B9C00184600F00EFC7B681B681A6A41F21113A0
:101BAC001340002B0FD17B681B681A6A40F2444328
:101BBC001340002B07D17B681B681A687B681B6875
:101BCC0022F001021A603B68002B04D17B680122D1
:101BDC0083F83E2013E03B68042B04D17B68012280
:101BEC0083F83F200BE03B68082B04D17B68012273
:101BFC0083F8402003E07B68012283F841203B6896
:101C0C00002B04D17B68012283F8422013E03B684F
:101C1C00042B04D17B68012283F843200BE03B6842
:101C2C00082B04D17B68012283F8442003E07B68F5
:101C3C00012283F84520FB7B18461037BD4680BD3A
:101C4C0080B586B000AFF860B9607A600023FB7590
:101C5C00FB6893F83C30012B01D1022388E0FB6830
:101C6C00012283F83C207B68002B1BD1FB68186891
:101C7C00BB681968BB685A68BB68DB6800F0F6F98A
:101C8C00FB681B689A69FB681B6822F00C029A615E
:101C9C00FB681B689969BB689A68FB681B680A43F8
:101CAC009A6160E07B68042B1CD1FB681868BB68E8
:101CBC001968BB685A68BB68DB6800F05FFAFB68A0
:101CCC001B689A69FB681B6822F440629A61FB6886
:101CDC001B689969BB689B681A02FB681B680A43FE
:101CEC009A6140E07B68082B1BD1FB681868BB68C5
:101CFC001968BB685A68BB68DB6800F0AAFAFB6815
:101D0C001B68DA69FB681B6822F00C02DA61FB685D
:101D1C001B68D969BB689A68FB681B680A43DA615F
:101D2C0021E07B680C2B1CD1FB681868BB68196818
:101D3C00BB685A68BB68DB6800F0C6FAFB681B68B6
:101D4C00DA69FB681B6822F44062DA61FB681B6885
:101D5C00D969BB689B681A02FB681B680A43DA6185
:101D6C0001E00123FB75FB68002283F83C20FB7D1E
:101D7C0018461837BD4680BD80B584B000AF78607A
:101D8C0039600023FB737B6893F83C30012B01D145
:101D9C000223B4E07B68012283F83C207B6802229A
:101DAC0083F83D207B681B689B68BB60BB6823F095
:101DBC007703BB60BB6823F47F43BB607B681B6805
:101DCC00BA689A603B681B68B3F5005F3ED0B3F508
:101DDC00005F00F28780B3F5805F00F08680B3F57A
:101DEC00805F7FD8702B1AD0702B7BD8602B50D093
:101DFC00602B77D8502B3CD0502B73D8402B58D01D
:101E0C00402B6FD8302B64D0302B6BD8202B60D06C
:101E1C00202B67D8002B5CD0102B5AD062E07B684B
:101E2C0018683B6899683B685A683B68DB6800F047
:101E3C00A1FA7B681B689B68BB60BB6843F07703A7
:101E4C00BB607B681B68BA689A604FE07B68186857
:101E5C003B6899683B685A683B68DB6800F08AFA13
:101E6C007B681B689A687B681B6842F480429A60A6
:101E7C003CE07B6818683B6859683B68DB681A462D
:101E8C0000F04EF97B681B685021184600F058FA98
:101E9C002CE07B6818683B6859683B68DB681A461D
:101EAC0000F0A8F97B681B686021184600F048FA1E
:101EBC001CE07B6818683B6859683B68DB681A460D
:101ECC0000F02EF97B681B684021184600F038FAA8
:101EDC000CE07B681A683B681B681946104600F0DA
:101EEC002FFA03E00123FB7300E000BF7B680122A3
:101EFC0083F83D207B68002283F83C20FB7B18464E
:101F0C001037BD4680BD000080B485B000AF78604E
:101F1C0039600023FB603B680C2B31D801A252F8CE
:101F2C0023F000BF651F00088D1F00088D1F0008DF
:101F3C008D1F00086F1F00088D1F00088D1F0008E3
:101F4C008D1F0008791F00088D1F00088D1F0008C9
:101F5C008D1F0008831F00087B681B685B6BFB6090
:101F6C000FE07B681B689B6BFB600AE07B681B685F
:101F7C00DB6BFB6005E07B681B681B6CFB6000E0A7
:101F8C0000BFFB6818461437BD4680BC704700BFC5
:101F9C0080B485B000AF786039607B681B68FB60EB
:101FAC007B682F4A93420BD07B68B3F1804F07D0EC
:101FBC007B682C4A934203D07B682B4A934208D10E
:101FCC00FB6823F07003FB603B685B68FA681343A3
:101FDC00FB607B68224A93420BD07B68B3F1804F45
:101FEC0007D07B681F4A934203D07B681E4A9342FA
:101FFC0008D1FB6823F44073FB603B68DB68FA682C
:10200C001343FB60FB6823F080023B685B6913435E
:10201C00FB607B68FA681A603B689A687B68DA62D6
:10202C003B681A687B689A627B680D4A934203D1BD
:10203C003B681A697B681A637B6801225A617B686A
:10204C001B6903F00103002B05D07B681B6923F08F
:10205C0001027B681A6100BF1437BD4680BC704713
:10206C00002C0140000400400008004080B487B000
:10207C0000AFF860B9607A603B60FB681B6A3B613B
:10208C00FB681B6A23F00102FB681A62FB689B6900
:10209C007B61FB681F4A93420BD0FB68B3F1804F06
:1020AC0007D0FB681C4A934203D0FB681B4A93423F
:1020BC0001D1012300E00023002B08D07B6923F021
:1020CC0003037B617A697B6813437B6103E07B6963
:1020DC0043F001037B617B6923F0F0037B613B6878
:1020EC001B01DBB27A6913437B613B6923F00A0362
:1020FC003B61BB6803F00A033A6913433B61FB681D
:10210C007A699A61FB683A691A6200BF1C37BD464E
:10211C0080BC7047002C01400004004000080040C7
:10212C0080B487B000AFF860B9607A60FB681B6A56
:10213C007B61FB681B6A23F00102FB681A62FB6877
:10214C009B693B613B6923F0F0033B617B681B019E
:10215C003A6913433B617B6923F00A037B617A691B
:10216C00BB6813437B61FB683A699A61FB687A69C7
:10217C001A6200BF1C37BD4680BC704780B487B064
:10218C0000AFF860B9607A603B60FB681B6A7B61EA
:10219C00FB681B6A23F01002FB681A62FB689B69E0
:1021AC003B613B6923F440733B617B681B023A69DA
:1021BC0013433B613B6923F470433B613B681B0356
:1021CC009BB23A6913433B617B6923F0A0037B61AB
:1021DC00BB681B0103F0A0037A6913437B61FB68A6
:1021EC003A699A61FB687A691A6200BF1C37BD466E
:1021FC0080BC704780B487B000AFF860B9607A607B
:10220C00FB681B6A7B61FB681B6A23F01002FB688E
:10221C001A62FB689B693B613B6923F470433B6129
:10222C007B681B033A6913433B617B6923F0A00372
:10223C007B61BB681B017A6913437B61FB683A695C
:10224C009A61FB687A691A6200BF1C37BD4680BC74
:10225C00704780B487B000AFF860B9607A603B60BB
:10226C00FB681B6A7B61FB681B6A23F48072FB684A
:10227C001A62FB68DB693B613B6923F003033B613A
:10228C003A697B6813433B613B6923F0F0033B6184
:10229C003B681B01DBB23A6913433B617B6923F456
:1022AC0000737B61BB681B0203F400737A691343F0
:1022BC007B61FB683A69DA61FB687A691A6200BF74
:1022CC001C37BD4680BC704780B487B000AFF86047
:1022DC00B9607A603B60FB681B6A7B61FB681B6AB8
:1022EC0023F48052FB681A62FB68DB693B613B6933
:1022FC0023F440733B617B681B023A6913433B61D7
:10230C003B6923F470433B613B681B039BB23A6906
:10231C0013433B617B6923F400537B61BB681B0354
:10232C0003F400537A6913437B61FB683A69DA6101
:10233C00FB687A691A6200BF1C37BD4680BC7047C7
:10234C0080B485B000AF786039607B689B68FB60B7
:10235C00FB6823F07003FB603A68FB68134343F09F
:10236C000703FB607B68FA689A6000BF1437BD46B0
:10237C0080BC704780B487B000AFF860B9607A60F9
:10238C003B60FB689B687B617B6923F47F437B61CB
:10239C003B681A027B681A43BB6813437A69134380
:1023AC007B61FB687A699A6000BF1C37BD4680BCB4
:1023BC00704780B487B000AFF860B9607A60BB68D2
:1023CC0003F01F03012202FA03F37B61FB681A6A14
:1023DC007B69DB431A40FB681A62FB681A6ABB68AC
:1023EC0003F01F03796801FA03F31A43FB681A62BE
:1023FC0000BF1C37BD4680BC7047000080B485B060
:10240C0000AF786039607B6893F83C30012B01D1C8
:10241C00022346E07B68012283F83C207B68022281
:10242C0083F83D207B681B685B68FB607B681B68DE
:10243C009B68BB60FB6823F07003FB603B681B6808
:10244C00FA681343FB607B681B68FA685A607B6808
:10245C001B68164A93420ED07B681B68B3F1804F01
:10246C0009D07B681B68124A934204D07B681B68B6
:10247C00104A93420CD1BB6823F08003BB603B68CD
:10248C005B68BA681343BB607B681B68BA689A6068
:10249C007B68012283F83D207B68002283F83C2076
:1024AC00002318461437BD4680BC7047002C0140F1
:1024BC00000400400008004080B582B000AF786096
:1024CC007B68002B01D1012342E07B6893F84130FB
:1024DC00DBB2002B06D17B68002283F840207868A1
:1024EC00FDF7F0FF7B68242283F841207B681B6892
:1024FC00DA687B681B6822F40052DA60786800F0B6
:10250C0071F97B681B681A697B681B6822F490421E
:10251C001A617B681B685A697B681B6822F02A0267
:10252C005A617B681B68DA687B681B6842F400524E
:10253C00DA607B6800225A647B68202283F8412091
:10254C007B68202283F842207B6800225A63002398
:10255C0018460837BD4680BD80B58AB002AFF8601A
:10256C00B9603B601346FB8000237B61FB6893F8EA
:10257C004130DBB2202B75D1BB68002B02D0FB881D
:10258C00002B01D101236EE0FB6800225A64FB682A
:10259C00212283F84120FEF7AFF97861FB68FA88B5
:1025AC009A84FB68FA88DA84FB689B68B3F5805FD1
:1025BC0008D1FB681B69002B04D10023FB61BB68AD
:1025CC00BB6103E0BB68FB610023BB612EE03B6891
:1025DC0000937B6900228021F86800F048F80346DC
:1025EC00002B05D0FB68202283F8412003233AE01E
:1025FC00FB69002B0BD1BB691B881A46FB681B6857
:10260C00C2F308025A60BB690233BB6107E0FB6985
:10261C001A78FB681B685A60FB690133FB61FB6825
:10262C00DB8C9BB2013B9AB2FB68DA84FB68DB8CD7
:10263C009BB2002BCBD13B6800937B6900224021DD
:10264C00F86800F014F80346002B05D0FB68202234
:10265C0083F84120032306E0FB68202283F8412005
:10266C00002300E0022318462037BD4680BD80B50C
:10267C0086B000AFF860B9603B601346FB713BE07D
:10268C003B6AB3F1FF3F37D0FEF736F902463B68A1
:10269C00D31A3A6A9A4202D33B6A002B01D1032324
:1026AC003AE0FB681B68DB6803F00403002B23D0C3
:1026BC00BB68802B20D0BB68402B1DD0FB681B68EF
:1026CC001B6803F00803082B16D100237B61FB6801
:1026DC001B681B687B61FB681B685B687B617B69A3
:1026EC00F86800F01DF8FB6808225A64FB680022A9
:1026FC0083F8402001230FE0FB681B681A68BB6855
:10270C001340BA689A420CBF01230023DBB21A466D
:10271C00FB799A42B4D0002318461837BD4680BDC9
:10272C0080B495B000AF78607B681B680C337B631A
:10273C007B6B53E8003F3B633B6B23F49073FB6470
:10274C007B681B680C33FA6C3A64FB63F96B3A6C6C
:10275C0041E80023BB63BB6B002BE5D17B681B6896
:10276C0014333B623B6A53E8003FFB61FB6923F087
:10277C000103BB647B681B681433BA6CFA62BB62DE
:10278C00B96AFA6A41E800237B627B6A002BE5D1C7
:10279C007B681B6B012B19D17B681B680C33FB60AE
:1027AC00FB6853E8003FBB60BB6823F010037B64FD
:1027BC007B681B680C337A6CBA617B617969BA6986
:1027CC0041E800233B613B69002BE5D17B6820226B
:1027DC0083F842207B6800221A6300BF5437BD4641
:1027EC0080BC704780B584B000AF78607B681B6894
:1027FC001B6923F440517B68DA687B681B680A43C9
:10280C001A617B689A687B681B691A437B685B69F1
:10281C001343BB607B681B68DB6823F4B05323F065
:10282C000C037A681268B9680B43D3607B681B6829
:10283C005B6923F440717B689A697B681B680A4367
:10284C005A617B681B682C4A934203D1FEF7E4FE65
:10285C00F86002E0FEF7CCFEF860FA6813469B00C5
:10286C0013449A001A447B685B689B00B2FBF3F339
:10287C00224AA2FB03235B091901FA6813469B0049
:10288C0013449A001A447B685B689B00B2FBF3F21A
:10289C001A4BA3FB02035B09642000FB03F3D31A5E
:1028AC001B013233154AA2FB03235B0903F0F0032F
:1028BC001944FA6813469B0013449A001A447B6827
:1028CC005B689B00B2FBF3F20C4BA3FB02035B09AE
:1028DC00642000FB03F3D31A1B013233074AA2FB1B
:1028EC0003235B0903F00F027B681B680A449A60A0
:1028FC0000BF1037BD4680BD003801401F85EB512D
:10290C00014B1868704700BF1000002070B50026FE
:10291C000C4D0D4C641BA410A64209D100F070FCA8
:10292C0000260A4D0A4C641BA410A64205D170BDAA
:10293C0055F8043B98470136EEE755F8043B9847A9
:10294C000136F2E78C3200088C3200088C32000819
:10295C009032000803460244934200D1704703F8BA
:10296C00011BF9E70CB430B5174B0C1E1D689DB05C
:10297C0008DA8B234FF0FF302B601DB0BDE83040E0
:10298C0002B070474FF40273ADF814300CBF2346FD
:10299C0004F1FF33049307934FF6FF7302900690F4
:1029AC00ADF81630284621AB209A02A9019300F00D
:1029BC0069F8431CBCBF8B232B60002CDDD000229C
:1029CC00029B1A70D9E700BF100000202DE9F047D8
:1029DC008E6882469E420C4690461F4638D88A899D
:1029EC0012F4906F32D0256809690133A5EB010907
:1029FC0065694B4405EB450505EBD5756D109D429E
:102A0C0038BF1D46530531D5294600F053FB064609
:102A1C0050B90C234FF0FF30CAF80030A38943F0B3
:102A2C004003A381BDE8F0874A46216900F0CEFA45
:102A3C00A38923F4906343F08003A38126614E4461
:102A4C0026603E466561A5EB0905A560BE4200D92E
:102A5C003E4632464146206800F0C6FAA36822681A
:102A6C009B1B32440020A3602260DBE72A4600F067
:102A7C007BFB06460028E1D15046216900F0CEFAD6
:102A8C00C7E700002DE9F04F98468B8907461B06D7
:102A9C000D4614469DB00ED50B6963B9402100F06C
:102AAC0009FB2860286120B90C233B604FF0FF30F4
:102ABC00D1E040236B610023099320238DF829304A
:102ACC0030234FF00109CDF80C80DFF8A4818DF88C
:102ADC002A3023469A4613F8012B0AB1252AF9D13C
:102AEC00BAEB040B0BD05B46224629463846FFF75F
:102AFC006DFF013000F0AA80099A5A4409929AF8A5
:102B0C000030002B00F0A28000234FF0FF32CDE903
:102B1C0005230AF1010A049307938DF853301A9395
:102B2C005446052214F8011B514800F041FA049A4E
:102B3C00D8B9D00644BF20238DF85330110744BFB9
:102B4C002B238DF853309AF800302A2B15D054468D
:102B5C0000204FF00A0C079A214611F8013B303B3C
:102B6C00092B4ED9B0B1079214E0A0EB080309FA77
:102B7C0003F31343A2460493D2E7039B191D1B686E
:102B8C000391002BBBBF5B4242F0020207930793F9
:102B9C00B8BF049223782E2B0CD163782A2B35D115
:102BAC00039B02341A1D1B680392002BB8BF4FF015
:102BBC00FF330593DFF8C8A003225046217800F0BC
:102BCC00F7F940B14023A0EB0A0003FA00F0049B94
:102BDC0001340343049314F8011B062225488DF895
:102BEC00281000F0E5F9002838D0234B1BBB039BC1
:102BFC00073323F0070308330393099B33440993EA
:102C0C0067E70C4601200CFB0232A5E700234FF0CE
:102C1C000A0C194601340593204610F8012B303A62
:102C2C00092A03D9002BC5D00591C3E7044601231B
:102C3C000CFB0121F0E703AB00932A4638460F4BFF
:102C4C0004A9AFF30080421C0646D6D1AB895B06C3
:102C5C003FF52CAF09981DB0BDE8F08F03AB009386
:102C6C002A463846054B04A900F07CF8EBE700BF78
:102C7C00563200086032000800000000D929000814
:102C8C005C3200082DE9F047164699468A680B69B4
:102C9C0007469342B8BF1346336091F843200C4665
:102CAC00DDF820800AB1013333602368990642BFF6
:102CBC00336802333360256815F0060506D104F13C
:102CCC00190AE36832689B1AAB4228DC94F843205B
:102CDC00131E226818BF012392062DD4494638468C
:102CEC0004F14302C047013020D02368E56803F0AB
:102CFC000603042B18BF002532684FF00006A368AA
:102D0C0008BFAD1A226908BF25EAE5759342C4BF16
:102D1C009B1AED181A34B5421AD1002008E0012391
:102D2C00524649463846C047013003D14FF0FF3078
:102D3C00BDE8F0870135C4E73020E11881F8430085
:102D4C005A1C94F845102244023382F84310C5E70C
:102D5C000123224649463846C0470130E6D00136A9
:102D6C00D9E700002DE9FF470C46277E9146782FC6
:102D7C0080469A460C9904F1430207D8622F0AD870
:102D8C00002F00F0D980582F00F0A48004F14206E7
:102D9C0084F842703AE0A7F16303152BF6D801A032
:102DAC0050F823F0092E00081D2E0008992D00085C
:102DBC00992D0008992D0008992D00081D2E00084A
:102DCC00992D0008992D0008992D0008992D0008BF
:102DDC002B2F00084D2E00080D2F0008992D0008F0
:102DEC00992D00084D2F0008992D00084D2E000834
:102DFC00992D0008992D0008152F00080B6804F177
:102E0C0042061A1D1B680A6084F842300123A4E0B4
:102E1C00256808682E0600F104030AD505680B60C6
:102E2C00002D03DA2D236D4284F843300A235E48CB
:102E3C0019E015F0400F05680B6018BF2DB2EFE7D5
:102E4C000B682568181D0860280601D51D6802E06E
:102E5C006906FBD51D886F2F0CBF08230A23524827
:102E6C00002184F843106668002EA8BF2168A66074
:102E7C00A4BF21F0040121600DB9002E4DD01646DF
:102E8C00B5FBF3F103FB1157C75D06F8017D2F4627
:102E9C00BB420D46F4D9082B0BD12368DF0708D5AC
:102EAC00236961689942DEBF302306F8013C06F1C4
:102EBC00FF36921B22614B4621464046CDF800A0BE
:102ECC0003AAFFF7DFFE01304CD14FF0FF3004B006
:102EDC00BDE8F087344884F845700E68236856F8CE
:102EEC00045B1F060E6014D5D90744BF43F02003C2
:102EFC0023601DB9236823F0200323601023AFE760
:102F0C00236843F0200323607823284884F8453055
:102F1C00E3E75E0648BFADB2E6E71646BBE70B68D3
:102F2C0026681D1D60690D6035061B6801D518608B
:102F3C0002E07106FBD51880002316462361BAE720
:102F4C000B681A1D0A601E6800213046626800F08A
:102F5C002FF808B1801B606063682361002384F83C
:102F6C004330A8E73246494640462369D0470130F2
:102F7C00ABD023689B0713D4E068039B9842B8BF7F
:102F8C001846A4E70123324649464046D047013053
:102F9C009BD00135E36803995B1AAB42F2DCEBE79B
:102FAC00002504F11906F5E76732000878320008AD
:102FBC00034610B5C9B202449342184601D1002011
:102FCC0003E0047801338C42F6D110BD0A449142DF
:102FDC0000F1FF3300D1704710B511F8014B91424D
:102FEC0003F8014FF9D110BD884210B501EB020472
:102FFC0002D98442234607D8431EA14208D011F8B7
:10300C00012B03F8012FF8E7014602448A4200D154
:10301C0010BD13F8014D02F8014DF7E738B5054620
:10302C00002943D051F8043C0C1F002BB8BFE41806
:10303C0000F0D0F81E4A1368104633B96360146070
:10304C002846BDE8384000F0CBB8A3420AD9216825
:10305C006218934201BF1A685B6852182260636061
:10306C000460EDE71A465B680BB1A342FAD911680C
:10307C005018A0420BD120680144501883421160B3
:10308C00DED118685B68014411605360D8E702D93F
:10309C000C232B60D4E7206821188B4201BF1968E0
:1030AC005B680918216063605460C9E738BD00BFD4
:1030BC00A0000020F8B5CD1C25F0030508350C2D1B
:1030CC0038BF0C25002D064601DBA94203D90C2381
:1030DC0033600020F8BD00F07DF821490A681446E1
:1030EC009CB9204F3B6823B92146304600F062F86A
:1030FC0038602946304600F05DF8431C23D10C2380
:10310C003046336000F06CF8E3E723685B1B17D4A0
:10311C000B2B03D923601C44256004E06368A24296
:10312C000CBF0B605360304600F05AF804F10B00F2
:10313C00231D20F00700C21ACCD01B1AA350C9E7DC
:10314C0022466468CCE7C41C24F00304A042E3D0FC
:10315C00211A304600F02EF80130DDD1CFE700BF48
:10316C00A0000020A4000020F8B5074614460E4627
:10317C0021B91146BDE8F840FFF79CBF22B9FFF713
:10318C004DFF25462846F8BD00F030F8A0420FD27E
:10319C0021463846FFF78EFF05460028F2D031460F
:1031AC002246FFF713FF31463846FFF737FFE9E7B2
:1031BC003546E7E738B50023054D044608462B6035
:1031CC00FDF7E0FA431C02D12B6803B1236038BD34
:1031DC00D0020020014800F011B800BFD802002036
:1031EC00014800F00CB800BFD802002051F8043C94
:1031FC00181F002BBCBF0B58C01870477047704786
:10320C00F8B500BFF8BC08BC9E467047F8B500BFC7
:08321C00F8BC08BC9E46704797
:10322400256C750D0A00000000000000000000007D
:103234000102030406070809000000000102030458
:1032440002030405060708090A0B0C0D0E0F1010E3
:103254000102232D302B2000686C4C006566674505
:1032640046470030313233343536373839414243FA
:1032740044454600303132333435363738396162AB
:083284006364656600000000B0
:04328C003101000804
:043290000D01000824
:103294000100000000127A0010000000010000008C
:1032A40014000020000000000000000000000000E6
:1032B400000000000000000000000000000000000A
:1032C40000000000000000000000000000000000FA
:1032D40000000000000000000000000000000000EA
:1032E40000000000000000000000000000000000DA
:1032F40000000000000000000000000000000000CA
:0433040000000000C5
:0400000508000809DE
:00000001FF
